{
  "_format": "hh-sol-artifact-1",
  "contractName": "MultiSend",
  "sourceName": "contracts/MultiSend.sol",
  "abi": [
    {
      "inputs": [],
      "name": "EmptyRecipients",
      "type": "error"
    },
    {
      "inputs": [],
      "name": "LengthMismatch",
      "type": "error"
    },
    {
      "inputs": [],
      "name": "NotAContract",
      "type": "error"
    },
    {
      "inputs": [
        {
          "internalType": "address",
          "name": "token",
          "type": "address"
        }
      ],
      "name": "SafeERC20FailedOperation",
      "type": "error"
    },
    {
      "inputs": [],
      "name": "ZeroAddress",
      "type": "error"
    },
    {
      "inputs": [],
      "name": "ZeroAmount",
      "type": "error"
    },
    {
      "anonymous": false,
      "inputs": [
        {
          "indexed": true,
          "internalType": "address",
          "name": "sender",
          "type": "address"
        },
        {
          "indexed": true,
          "internalType": "address",
          "name": "token",
          "type": "address"
        },
        {
          "indexed": false,
          "internalType": "uint256",
          "name": "totalAmount",
          "type": "uint256"
        },
        {
          "indexed": false,
          "internalType": "uint256",
          "name": "recipientCount",
          "type": "uint256"
        }
      ],
      "name": "MultiSendExecuted",
      "type": "event"
    },
    {
      "inputs": [
        {
          "internalType": "address",
          "name": "token",
          "type": "address"
        },
        {
          "internalType": "address[]",
          "name": "recipients",
          "type": "address[]"
        },
        {
          "internalType": "uint256[]",
          "name": "amounts",
          "type": "uint256[]"
        }
      ],
      "name": "multiSend",
      "outputs": [],
      "stateMutability": "nonpayable",
      "type": "function"
    },
    {
      "inputs": [
        {
          "internalType": "uint256[]",
          "name": "amounts",
          "type": "uint256[]"
        }
      ],
      "name": "requiredAllowance",
      "outputs": [
        {
          "internalType": "uint256",
          "name": "total",
          "type": "uint256"
        }
      ],
      "stateMutability": "pure",
      "type": "function"
    }
  ],
  "bytecode": "0x608060405234801561001057600080fd5b50610562806100206000396000f3fe608060405234801561001057600080fd5b50600436106100365760003560e01c806396a372061461003b5780639ec68f0f14610060575b600080fd5b61004e6100493660046103ee565b610075565b60405190815260200160405180910390f35b61007361006e36600461044c565b6100d7565b005b600081810361009757604051632a67cf2360e01b815260040160405180910390fd5b60005b828110156100d0578383828181106100b4576100b46104cd565b90506020020135826100c691906104e3565b915060010161009a565b5092915050565b6001600160a01b0385166100fe5760405163d92e233d60e01b815260040160405180910390fd5b843b6000819003610122576040516309ee12d560e01b815260040160405180910390fd5b83600081900361014557604051632a67cf2360e01b815260040160405180910390fd5b808314610168576040516001621398b960e31b0319815260040160405180910390fd5b866000805b8381101561022c576000898983818110610189576101896104cd565b905060200201602081019061019e919061050a565b6001600160a01b0316036101c55760405163d92e233d60e01b815260040160405180910390fd5b8686828181106101d7576101d76104cd565b905060200201356000036101fe57604051631f2a200560e01b815260040160405180910390fd5b868682818110610210576102106104cd565b905060200201358261022291906104e3565b915060010161016d565b5060005b8381101561029e57610296338a8a8481811061024e5761024e6104cd565b9050602002016020810190610263919061050a565b898985818110610275576102756104cd565b90506020020135866001600160a01b03166102f0909392919063ffffffff16565b600101610230565b5060408051828152602081018590526001600160a01b038b169133917fa1c09e03a126028501f532825033b88841b3705c281caa3fe6a36b02c1e66596910160405180910390a3505050505050505050565b6102fe848484846001610330565b61032a57604051635274afe760e01b81526001600160a01b038516600482015260240160405180910390fd5b50505050565b6040516323b872dd60e01b60008181526001600160a01b038781166004528616602452604485905291602083606481808c5af192506001600051148316610390578383151615610383573d6000823e3d81fd5b6000883b113d1516831692505b60405250600060605295945050505050565b60008083601f8401126103b457600080fd5b50813567ffffffffffffffff8111156103cc57600080fd5b6020830191508360208260051b85010111156103e757600080fd5b9250929050565b6000806020838503121561040157600080fd5b823567ffffffffffffffff81111561041857600080fd5b610424858286016103a2565b90969095509350505050565b80356001600160a01b038116811461044757600080fd5b919050565b60008060008060006060868803121561046457600080fd5b61046d86610430565b9450602086013567ffffffffffffffff8082111561048a57600080fd5b61049689838a016103a2565b909650945060408801359150808211156104af57600080fd5b506104bc888289016103a2565b969995985093965092949392505050565b634e487b7160e01b600052603260045260246000fd5b8082018082111561050457634e487b7160e01b600052601160045260246000fd5b92915050565b60006020828403121561051c57600080fd5b61052582610430565b939250505056fea26469706673582212206c8c3e4370ae0bc91b256960669f96e37bb8a3c6d68d978bb383f6cc3445cda864736f6c63430008180033",
  "linkReferences": {},
  "deployedLinkReferences": {}
}